{
  "contractName": "Liquidation",
  "abi": [
    {
      "constant": true,
      "inputs": [],
      "name": "previousUpdateTime",
      "outputs": [
        {
          "name": "",
          "type": "uint256"
        }
      ],
      "payable": false,
      "stateMutability": "view",
      "type": "function"
    },
    {
      "constant": true,
      "inputs": [],
      "name": "fundWallet",
      "outputs": [
        {
          "name": "",
          "type": "address"
        }
      ],
      "payable": false,
      "stateMutability": "view",
      "type": "function"
    },
    {
      "constant": true,
      "inputs": [
        {
          "name": "",
          "type": "address"
        }
      ],
      "name": "withdrawals",
      "outputs": [
        {
          "name": "tokens",
          "type": "uint256"
        },
        {
          "name": "time",
          "type": "uint256"
        }
      ],
      "payable": false,
      "stateMutability": "view",
      "type": "function"
    },
    {
      "constant": true,
      "inputs": [],
      "name": "controlWallet",
      "outputs": [
        {
          "name": "",
          "type": "address"
        }
      ],
      "payable": false,
      "stateMutability": "view",
      "type": "function"
    },
    {
      "constant": true,
      "inputs": [],
      "name": "currentPrice",
      "outputs": [
        {
          "name": "numerator",
          "type": "uint256"
        },
        {
          "name": "denominator",
          "type": "uint256"
        }
      ],
      "payable": false,
      "stateMutability": "view",
      "type": "function"
    },
    {
      "constant": true,
      "inputs": [],
      "name": "halted",
      "outputs": [
        {
          "name": "",
          "type": "bool"
        }
      ],
      "payable": false,
      "stateMutability": "view",
      "type": "function"
    },
    {
      "constant": true,
      "inputs": [
        {
          "name": "",
          "type": "uint256"
        }
      ],
      "name": "prices",
      "outputs": [
        {
          "name": "numerator",
          "type": "uint256"
        },
        {
          "name": "denominator",
          "type": "uint256"
        }
      ],
      "payable": false,
      "stateMutability": "view",
      "type": "function"
    },
    {
      "constant": true,
      "inputs": [],
      "name": "C20InterfaceAddress",
      "outputs": [
        {
          "name": "",
          "type": "address"
        }
      ],
      "payable": false,
      "stateMutability": "view",
      "type": "function"
    },
    {
      "inputs": [
        {
          "name": "fundWalletInput",
          "type": "address"
        },
        {
          "name": "controlWalletInput",
          "type": "address"
        },
        {
          "name": "priceNumeratorInput",
          "type": "uint256"
        },
        {
          "name": "c20Address",
          "type": "address"
        }
      ],
      "payable": false,
      "stateMutability": "nonpayable",
      "type": "constructor"
    },
    {
      "payable": true,
      "stateMutability": "payable",
      "type": "fallback"
    },
    {
      "constant": false,
      "inputs": [
        {
          "name": "_newNumerator",
          "type": "uint256"
        }
      ],
      "name": "updatePrice",
      "outputs": [],
      "payable": false,
      "stateMutability": "nonpayable",
      "type": "function"
    },
    {
      "constant": false,
      "inputs": [
        {
          "name": "_newDenominator",
          "type": "uint256"
        }
      ],
      "name": "updatePriceDenominator",
      "outputs": [],
      "payable": false,
      "stateMutability": "nonpayable",
      "type": "function"
    },
    {
      "constant": true,
      "inputs": [
        {
          "name": "_participant",
          "type": "address"
        }
      ],
      "name": "getTokenBalance",
      "outputs": [
        {
          "name": "balance",
          "type": "uint256"
        }
      ],
      "payable": false,
      "stateMutability": "view",
      "type": "function"
    },
    {
      "constant": false,
      "inputs": [
        {
          "name": "_tokensToWithdraw",
          "type": "uint256"
        }
      ],
      "name": "requestWithdrawal",
      "outputs": [],
      "payable": false,
      "stateMutability": "nonpayable",
      "type": "function"
    },
    {
      "constant": false,
      "inputs": [],
      "name": "withdraw",
      "outputs": [],
      "payable": false,
      "stateMutability": "nonpayable",
      "type": "function"
    },
    {
      "constant": false,
      "inputs": [],
      "name": "addLiquidity",
      "outputs": [],
      "payable": true,
      "stateMutability": "payable",
      "type": "function"
    },
    {
      "constant": false,
      "inputs": [
        {
          "name": "_amount",
          "type": "uint256"
        },
        {
          "name": "_c20add",
          "type": "address"
        }
      ],
      "name": "removeLiquidity",
      "outputs": [],
      "payable": false,
      "stateMutability": "nonpayable",
      "type": "function"
    },
    {
      "constant": false,
      "inputs": [],
      "name": "halt",
      "outputs": [],
      "payable": false,
      "stateMutability": "nonpayable",
      "type": "function"
    },
    {
      "constant": false,
      "inputs": [],
      "name": "unhalt",
      "outputs": [],
      "payable": false,
      "stateMutability": "nonpayable",
      "type": "function"
    }
  ],
  "bytecode": "0x60806040526000809054906101000a900473ffffffffffffffffffffffffffffffffffffffff16600160006101000a81548173ffffffffffffffffffffffffffffffffffffffff021916908373ffffffffffffffffffffffffffffffffffffffff1602179055506000600360146101000a81548160ff02191690831515021790555034801561008d57600080fd5b506040516080806110d383398101806040528101908080519060200190929190805190602001909291908051906020019092919080519060200190929190505050600073ffffffffffffffffffffffffffffffffffffffff168473ffffffffffffffffffffffffffffffffffffffff161415151561010a57600080fd5b600073ffffffffffffffffffffffffffffffffffffffff168373ffffffffffffffffffffffffffffffffffffffff161415151561014657600080fd5b60008211151561015557600080fd5b83600260006101000a81548173ffffffffffffffffffffffffffffffffffffffff021916908373ffffffffffffffffffffffffffffffffffffffff16021790555082600360006101000a81548173ffffffffffffffffffffffffffffffffffffffff021916908373ffffffffffffffffffffffffffffffffffffffff16021790555060408051908101604052808381526020016103e88152506005600082015181600001556020820151816001015590505042600481905550806000806101000a81548173ffffffffffffffffffffffffffffffffffffffff021916908373ffffffffffffffffffffffffffffffffffffffff16021790555050505050610e72806102616000396000f3006080604052600436106100f1576000357c0100000000000000000000000000000000000000000000000000000000900463ffffffff16806305fe138b146100f3578063347820eb146101405780633aecd0e31461016b5780633ccfd60b146101c25780635ed7ca5b146101d9578063664a1ad6146101f05780637a9262a214610247578063823e569e146102a55780638d6cc56d146102fc5780639d1b464a146103295780639ee679e81461035b578063b9b8af0b14610388578063bc31c1c1146103b7578063cb3e64fd146103ff578063dbb2455414610416578063e8078d9414610443578063eabf12671461044d575b005b3480156100ff57600080fd5b5061013e60048036038101908080359060200190929190803573ffffffffffffffffffffffffffffffffffffffff1690602001909291905050506104a4565b005b34801561014c57600080fd5b506101556104ef565b6040518082815260200191505060405180910390f35b34801561017757600080fd5b506101ac600480360381019080803573ffffffffffffffffffffffffffffffffffffffff1690602001909291905050506104f5565b6040518082815260200191505060405180910390f35b3480156101ce57600080fd5b506101d76105f6565b005b3480156101e557600080fd5b506101ee61078c565b005b3480156101fc57600080fd5b506102056107a9565b604051808273ffffffffffffffffffffffffffffffffffffffff1673ffffffffffffffffffffffffffffffffffffffff16815260200191505060405180910390f35b34801561025357600080fd5b50610288600480360381019080803573ffffffffffffffffffffffffffffffffffffffff1690602001909291905050506107cf565b604051808381526020018281526020019250505060405180910390f35b3480156102b157600080fd5b506102ba6107f3565b604051808273ffffffffffffffffffffffffffffffffffffffff1673ffffffffffffffffffffffffffffffffffffffff16815260200191505060405180910390f35b34801561030857600080fd5b5061032760048036038101908080359060200190929190505050610819565b005b34801561033557600080fd5b5061033e61086a565b604051808381526020018281526020019250505060405180910390f35b34801561036757600080fd5b506103866004803603810190808035906020019092919050505061087c565b005b34801561039457600080fd5b5061039d610a64565b604051808215151515815260200191505060405180910390f35b3480156103c357600080fd5b506103e260048036038101908080359060200190929190505050610a77565b604051808381526020018281526020019250505060405180910390f35b34801561040b57600080fd5b50610414610a9b565b005b34801561042257600080fd5b5061044160048036038101908080359060200190929190505050610ab8565b005b61044b610b09565b005b34801561045957600080fd5b50610462610b1a565b604051808273ffffffffffffffffffffffffffffffffffffffff1673ffffffffffffffffffffffffffffffffffffffff16815260200191505060405180910390f35b8073ffffffffffffffffffffffffffffffffffffffff166108fc839081150290604051600060405180830381858888f193505050501580156104ea573d6000803e3d6000fd5b505050565b60045481565b6000600160009054906101000a900473ffffffffffffffffffffffffffffffffffffffff1673ffffffffffffffffffffffffffffffffffffffff166370a08231836040518263ffffffff167c0100000000000000000000000000000000000000000000000000000000028152600401808273ffffffffffffffffffffffffffffffffffffffff1673ffffffffffffffffffffffffffffffffffffffff168152602001915050602060405180830381600087803b1580156105b457600080fd5b505af11580156105c8573d6000803e3d6000fd5b505050506040513d60208110156105de57600080fd5b81019080805190602001909291905050509050919050565b600080610601610e2c565b6000600860003373ffffffffffffffffffffffffffffffffffffffff1673ffffffffffffffffffffffffffffffffffffffff16815260200190815260200160002060000154935060008411151561065757600080fd5b600860003373ffffffffffffffffffffffffffffffffffffffff1673ffffffffffffffffffffffffffffffffffffffff16815260200190815260200160002060010154925060076000848152602001908152602001600020604080519081016040529081600082015481526020016001820154815250509150600082600001511115156106e357600080fd5b81600001516106f6858460200151610b3f565b8115156106ff57fe5b0490506000600860003373ffffffffffffffffffffffffffffffffffffffff1673ffffffffffffffffffffffffffffffffffffffff16815260200190815260200160002060000181905550803073ffffffffffffffffffffffffffffffffffffffff163110151561077a57610775338286610b72565b610786565b610785338286610d04565b5b50505050565b6001600360146101000a81548160ff021916908315150217905550565b600260009054906101000a900473ffffffffffffffffffffffffffffffffffffffff1681565b60086020528060005260406000206000915090508060000154908060010154905082565b600360009054906101000a900473ffffffffffffffffffffffffffffffffffffffff1681565b60008111151561082857600080fd5b80600560000181905550600560076000600454815260200190815260200160002060008201548160000155600182015481600101559050504260048190555050565b60058060000154908060010154905082565b60008111151561088b57600080fd5b80610895336104f5565b101515156108a257600080fd5b6000600860003373ffffffffffffffffffffffffffffffffffffffff1673ffffffffffffffffffffffffffffffffffffffff168152602001908152602001600020600001541415156108f357600080fd5b600160009054906101000a900473ffffffffffffffffffffffffffffffffffffffff1673ffffffffffffffffffffffffffffffffffffffff1663a9059cbb30836040518363ffffffff167c0100000000000000000000000000000000000000000000000000000000028152600401808373ffffffffffffffffffffffffffffffffffffffff1673ffffffffffffffffffffffffffffffffffffffff16815260200182815260200192505050602060405180830381600087803b1580156109b857600080fd5b505af11580156109cc573d6000803e3d6000fd5b505050506040513d60208110156109e257600080fd5b8101908080519060200190929190505050506040805190810160405280828152602001600454815250600860003373ffffffffffffffffffffffffffffffffffffffff1673ffffffffffffffffffffffffffffffffffffffff168152602001908152602001600020600082015181600001556020820151816001015590505050565b600360149054906101000a900460ff1681565b60076020528060005260406000206000915090508060000154908060010154905082565b6000600360146101000a81548160ff021916908315150217905550565b600081111515610ac757600080fd5b80600560010181905550600560076000600454815260200190815260200160002060008201548160000155600182015481600101559050504260048190555050565b600034111515610b1857600080fd5b565b6000809054906101000a900473ffffffffffffffffffffffffffffffffffffffff1681565b60008082840290506000841480610b605750828482811515610b5d57fe5b04145b1515610b6857fe5b8091505092915050565b813073ffffffffffffffffffffffffffffffffffffffff163110151515610b9557fe5b600160009054906101000a900473ffffffffffffffffffffffffffffffffffffffff1673ffffffffffffffffffffffffffffffffffffffff1663a9059cbb600260009054906101000a900473ffffffffffffffffffffffffffffffffffffffff16836040518363ffffffff167c0100000000000000000000000000000000000000000000000000000000028152600401808373ffffffffffffffffffffffffffffffffffffffff1673ffffffffffffffffffffffffffffffffffffffff16815260200182815260200192505050602060405180830381600087803b158015610c7c57600080fd5b505af1158015610c90573d6000803e3d6000fd5b505050506040513d6020811015610ca657600080fd5b8101908080519060200190929190505050508273ffffffffffffffffffffffffffffffffffffffff166108fc839081150290604051600060405180830381858888f19350505050158015610cfe573d6000803e3d6000fd5b50505050565b813073ffffffffffffffffffffffffffffffffffffffff1631101515610d2657fe5b600160009054906101000a900473ffffffffffffffffffffffffffffffffffffffff1673ffffffffffffffffffffffffffffffffffffffff1663a9059cbb84836040518363ffffffff167c0100000000000000000000000000000000000000000000000000000000028152600401808373ffffffffffffffffffffffffffffffffffffffff1673ffffffffffffffffffffffffffffffffffffffff16815260200182815260200192505050602060405180830381600087803b158015610deb57600080fd5b505af1158015610dff573d6000803e3d6000fd5b505050506040513d6020811015610e1557600080fd5b810190808051906020019092919050505050505050565b6040805190810160405280600081526020016000815250905600a165627a7a72305820706d7695e0902370612c60b7d882198487ff6185c75d2dbae8ffa7e5b48b40210029",
  "source": "pragma solidity ^0.4.22;\n\n\n/// @title A contract used to prevent uint overflow issues when performing mathematical operations\ncontract SafeMath {\n    function safeMul(uint a, uint b) internal returns (uint) {\n        uint c = a * b;\n        assert(a == 0 || c / a == b);\n        return c;\n    }\n    function safeSub(uint a, uint b) internal returns (uint) {\n        assert(b <= a);\n        return a - b;\n    }\n    function safeAdd(uint a, uint b) internal returns (uint) {\n        uint c = a + b;\n        assert(c>=a && c>=b);\n        return c;\n    }\n}\n\n\ncontract C20Interface {\n  function balanceOf(address _owner) constant returns (uint256 balance);\n  function transfer(address _to, uint256 _value) returns (bool success);\n  mapping (address => bool) public whitelist;\n  //function verifyParticipant(address participant) external;\n}\n\n\n/// @title C20 liquidation contract\n/// @author Tom McCarthy\n/// @notice Liquidates C20 tokens held by participants in the Cryto20 fund\ncontract Liquidation is SafeMath {\n    // Address of C20 contract on ethereum\n    address public C20InterfaceAddress;\n    C20Interface c20Contract = C20Interface(C20InterfaceAddress);\n\n    // PUBLIC VARIABLES:\n    /// @dev Managing wallets from C20 contract\n    address public fundWallet;\n    address public controlWallet;\n\n    // TODO: implement wait time for price updates\n    bool public halted = false;\n    uint public previousUpdateTime;\n    Price public currentPrice;\n\n    // STRUCTS:\n    /// @dev Price of C20 (tokens per ether)\n    struct Price {\n        uint numerator;\n        uint denominator;\n    }\n\n    /// @dev Amount tokens to withdraw, previous update time when request made\n    struct Withdrawal {\n        uint tokens;\n        uint time;\n    }\n\n    // MAPPINGS:\n    /// @dev Previous update time mapped to most recently retrieved price\n    mapping (uint256 => Price) public prices;\n\n    /// @dev Address mapped to withdrawal\n    mapping (address => Withdrawal) public withdrawals;\n\n    //MODIFIERS:\n    // TODO: create modifiers\n    modifier onlyWhitelist {\n      require(c20Contract.whitelist(msg.sender));\n      _;\n    }\n\n    // EVENTS:\n    // TODO: create events for functions to communicate with front-end\n\n    // CONSTRUCTOR:\n    constructor(address fundWalletInput, address controlWalletInput, uint priceNumeratorInput, address c20Address) public {\n        require(fundWalletInput != address(0));\n        require(controlWalletInput != address(0));\n        require(priceNumeratorInput > 0);\n        fundWallet = fundWalletInput;\n        controlWallet = controlWalletInput;\n        currentPrice = Price(priceNumeratorInput, 1000);\n        previousUpdateTime = now;\n        C20InterfaceAddress = c20Address;\n    }\n\n    // FUNCTIONS:\n    /// @notice Fallback function allowing contract to accept ether\n    function () public payable {}\n\n    /// @notice Updates number of C20 tokens per set amount of ether\n    /// @dev Current update time is not mapped to current price in order to maintain forward pricing policy\n    function updatePrice(uint _newNumerator) external {\n        require(_newNumerator > 0);\n        // TODO: require(limited_change(_newNumerator));\n        // Update numerator of currentPrice\n        currentPrice.numerator = _newNumerator;\n        // Map previous update time to updated price\n        prices[previousUpdateTime] = currentPrice;\n        // Update previousUpdateTime\n        previousUpdateTime = now;\n    }\n\n    /// @notice Updates set amount of ether in measure of C20 tokens per set amount of ether\n    /// @dev Not updated frequently like numerator; used in circumstances where order of magnitude of price changes\n    function updatePriceDenominator(uint _newDenominator) external {\n        require(_newDenominator > 0);\n        // Update denominator of currentPrice\n        currentPrice.denominator = _newDenominator;\n        // Map previous update time to updated price\n        prices[previousUpdateTime] = currentPrice;\n        // Update previousUpdateTime\n        previousUpdateTime = now;\n    }\n\n    /// @notice Gets C20 token balance of participant from C20 contract\n    function getTokenBalance(address _participant) public view returns (uint balance) {\n        // TODO: Get balance from balanceOf function in C20 contract\n        return c20Contract.balanceOf(_participant);\n    }\n\n    /// @notice Allows user to request a certain amount of tokens to liquidate\n    function requestWithdrawal(uint _tokensToWithdraw) external {//onlyWhitelist {\n        require(_tokensToWithdraw > 0);\n        require(getTokenBalance(msg.sender) >= _tokensToWithdraw);\n        // No outstanding withdrawals can exist\n        require(withdrawals[msg.sender].tokens == 0);\n        // Transfer C20 tokens from msg.sender to liquidation escrow wallet\n        c20Contract.transfer(this, _tokensToWithdraw);\n        // Store requested withdrawal in withdrawal mapping\n        withdrawals[msg.sender] = Withdrawal({tokens: _tokensToWithdraw, time: previousUpdateTime});\n    }\n\n    /// @notice Called by user after requesting withdrawal to carry out withdrawal\n    function withdraw() external {//onlyWhitelist {\n        uint tokens = withdrawals[msg.sender].tokens;\n        // Withdrawal must have been requested\n        require(tokens > 0);\n        // previousUpdateTime when request was made\n        uint requestTime = withdrawals[msg.sender].time;\n        // Next price that was set after the request (maintaining forward pricing policy)\n        Price memory priceAfterRequest = prices[requestTime];\n        // Price must have been set after requestTime\n        require(priceAfterRequest.numerator > 0);\n        // Convert number of C20 tokens in liquidation request to ether\n        uint256 ethValue = safeMul(tokens, priceAfterRequest.denominator) / priceAfterRequest.numerator;\n        // Reset mapping storing requested withdrawals\n        withdrawals[msg.sender].tokens = 0;\n\n        // If liquidation contract has enough ether in balance to perform liquidation transaction\n        if (address(this).balance >= ethValue) { //this.balance\n            // Perform liquidation transaction\n            doWithdrawal(msg.sender, ethValue, tokens);\n        }\n        else {\n            // Refund tokens to participant\n            failWithdrawal(msg.sender, ethValue, tokens);\n        }\n    }\n\n    /// @notice Add C20 tokens to fund wallet, transfer correstponding ether to participant\n    function doWithdrawal(address _participant, uint _ethValue, uint _tokens) private {\n        assert(address(this).balance >= _ethValue); //this.balance\n        // Add transfer C20 tokens from msg.sender to fundWallet\n        c20Contract.transfer(fundWallet, _tokens);\n        //c20Contract.transferFrom(this, fundwallet, _tokens);\n        // Transfer ether from contract to participant\n        _participant.transfer(_ethValue);\n        // TODO: Withdraw(_participant, _tokens, _ethValue);\n    }\n\n    /// @notice Refund tokens to participant, indicate failed transaction\n    function failWithdrawal(address _participant, uint _ethValue, uint _tokens) private {\n        assert(address(this).balance < _ethValue); //this.balance\n        // Refund tokens to participant\n        c20Contract.transfer(_participant, _tokens);\n        //c20Contract.transferFrom(this, _participant, _tokens);\n        // TODO: Withdraw(participant, tokens, 0);\n    }\n\n    /// @notice Managing wallets can transfer ether to contract\n    function addLiquidity() external payable {\n        require(msg.value > 0);\n        // TODO: AddLiquidity(msg.value);\n    }\n\n    /// @notice Managing wallets can transfer ether from contract to fund wallet\n    function removeLiquidity(uint _amount, address _c20add) external {\n        //require(_amount <= address(this).balance); //this.balance\n        _c20add.transfer(_amount);\n        // TODO: RemoveLiquidity(_amount);\n    }\n\n    /// @notice Fund wallet can stop liquidation transactions from occurring\n    function halt() external {\n        halted = true;\n    }\n\n    /// @notice Fund wallet can allow liquidation transactions to occur again\n    function unhalt() external {\n        halted = false;\n    }\n\n    // TODO: Update C20 Contract Address\n}\n",
  "sourcePath": "/Users/Tommy/Documents/invictus/liquidation/contracts/Liquidation.sol",
  "compiler": {
    "name": "solc",
    "version": "0.4.24+commit.e67f0147.Emscripten.clang"
  },
  "schemaVersion": "2.0.1",
  "updatedAt": "2018-07-05T15:53:30.648Z"
}