{
  "contractName": "Liquidation",
  "abi": [
    {
      "constant": true,
      "inputs": [],
      "name": "previousUpdateTime",
      "outputs": [
        {
          "name": "",
          "type": "uint256"
        }
      ],
      "payable": false,
      "stateMutability": "view",
      "type": "function"
    },
    {
      "constant": true,
      "inputs": [],
      "name": "fundWallet",
      "outputs": [
        {
          "name": "",
          "type": "address"
        }
      ],
      "payable": false,
      "stateMutability": "view",
      "type": "function"
    },
    {
      "constant": true,
      "inputs": [
        {
          "name": "",
          "type": "address"
        }
      ],
      "name": "withdrawals",
      "outputs": [
        {
          "name": "tokens",
          "type": "uint256"
        },
        {
          "name": "time",
          "type": "uint256"
        }
      ],
      "payable": false,
      "stateMutability": "view",
      "type": "function"
    },
    {
      "constant": true,
      "inputs": [],
      "name": "controlWallet",
      "outputs": [
        {
          "name": "",
          "type": "address"
        }
      ],
      "payable": false,
      "stateMutability": "view",
      "type": "function"
    },
    {
      "constant": true,
      "inputs": [],
      "name": "currentPrice",
      "outputs": [
        {
          "name": "numerator",
          "type": "uint256"
        },
        {
          "name": "denominator",
          "type": "uint256"
        }
      ],
      "payable": false,
      "stateMutability": "view",
      "type": "function"
    },
    {
      "constant": true,
      "inputs": [
        {
          "name": "a",
          "type": "uint256"
        },
        {
          "name": "b",
          "type": "uint256"
        }
      ],
      "name": "safeSub",
      "outputs": [
        {
          "name": "",
          "type": "uint256"
        }
      ],
      "payable": false,
      "stateMutability": "pure",
      "type": "function"
    },
    {
      "constant": true,
      "inputs": [],
      "name": "halted",
      "outputs": [
        {
          "name": "",
          "type": "bool"
        }
      ],
      "payable": false,
      "stateMutability": "view",
      "type": "function"
    },
    {
      "constant": true,
      "inputs": [
        {
          "name": "",
          "type": "uint256"
        }
      ],
      "name": "prices",
      "outputs": [
        {
          "name": "numerator",
          "type": "uint256"
        },
        {
          "name": "denominator",
          "type": "uint256"
        }
      ],
      "payable": false,
      "stateMutability": "view",
      "type": "function"
    },
    {
      "constant": true,
      "inputs": [
        {
          "name": "a",
          "type": "uint256"
        },
        {
          "name": "b",
          "type": "uint256"
        }
      ],
      "name": "safeMul",
      "outputs": [
        {
          "name": "",
          "type": "uint256"
        }
      ],
      "payable": false,
      "stateMutability": "pure",
      "type": "function"
    },
    {
      "constant": true,
      "inputs": [
        {
          "name": "a",
          "type": "uint256"
        },
        {
          "name": "b",
          "type": "uint256"
        }
      ],
      "name": "safeAdd",
      "outputs": [
        {
          "name": "",
          "type": "uint256"
        }
      ],
      "payable": false,
      "stateMutability": "pure",
      "type": "function"
    },
    {
      "constant": true,
      "inputs": [],
      "name": "liquidationWallet",
      "outputs": [
        {
          "name": "",
          "type": "address"
        }
      ],
      "payable": false,
      "stateMutability": "view",
      "type": "function"
    },
    {
      "inputs": [
        {
          "name": "fundWalletInput",
          "type": "address"
        },
        {
          "name": "controlWalletInput",
          "type": "address"
        },
        {
          "name": "priceNumeratorInput",
          "type": "uint256"
        }
      ],
      "payable": false,
      "stateMutability": "nonpayable",
      "type": "constructor"
    },
    {
      "payable": true,
      "stateMutability": "payable",
      "type": "fallback"
    },
    {
      "constant": false,
      "inputs": [
        {
          "name": "_newNumerator",
          "type": "uint256"
        }
      ],
      "name": "updatePrice",
      "outputs": [],
      "payable": false,
      "stateMutability": "nonpayable",
      "type": "function"
    },
    {
      "constant": false,
      "inputs": [
        {
          "name": "_newDenominator",
          "type": "uint256"
        }
      ],
      "name": "updatePriceDenominator",
      "outputs": [],
      "payable": false,
      "stateMutability": "nonpayable",
      "type": "function"
    },
    {
      "constant": false,
      "inputs": [
        {
          "name": "_tokensToWithdraw",
          "type": "uint256"
        }
      ],
      "name": "requestWithdrawal",
      "outputs": [],
      "payable": false,
      "stateMutability": "nonpayable",
      "type": "function"
    },
    {
      "constant": false,
      "inputs": [],
      "name": "withdraw",
      "outputs": [],
      "payable": false,
      "stateMutability": "nonpayable",
      "type": "function"
    },
    {
      "constant": false,
      "inputs": [],
      "name": "addLiquidity",
      "outputs": [],
      "payable": true,
      "stateMutability": "payable",
      "type": "function"
    },
    {
      "constant": false,
      "inputs": [
        {
          "name": "_amount",
          "type": "uint256"
        }
      ],
      "name": "removeLiquidity",
      "outputs": [],
      "payable": false,
      "stateMutability": "nonpayable",
      "type": "function"
    },
    {
      "constant": false,
      "inputs": [],
      "name": "halt",
      "outputs": [],
      "payable": false,
      "stateMutability": "nonpayable",
      "type": "function"
    },
    {
      "constant": false,
      "inputs": [],
      "name": "unhalt",
      "outputs": [],
      "payable": false,
      "stateMutability": "nonpayable",
      "type": "function"
    }
  ],
  "bytecode": "0x60806040527326e75307fc0c021472feb8f727839531f112f3176000806101000a81548173ffffffffffffffffffffffffffffffffffffffff021916908373ffffffffffffffffffffffffffffffffffffffff1602179055506000809054906101000a900473ffffffffffffffffffffffffffffffffffffffff16600160006101000a81548173ffffffffffffffffffffffffffffffffffffffff021916908373ffffffffffffffffffffffffffffffffffffffff1602179055506000600460146101000a81548160ff0219169083151502179055503480156100e157600080fd5b5060405160608061120a833981018060405281019080805190602001909291908051906020019092919080519060200190929190505050600073ffffffffffffffffffffffffffffffffffffffff168373ffffffffffffffffffffffffffffffffffffffff161415151561015457600080fd5b600073ffffffffffffffffffffffffffffffffffffffff168273ffffffffffffffffffffffffffffffffffffffff161415151561019057600080fd5b60008111151561019f57600080fd5b82600260006101000a81548173ffffffffffffffffffffffffffffffffffffffff021916908373ffffffffffffffffffffffffffffffffffffffff16021790555081600360006101000a81548173ffffffffffffffffffffffffffffffffffffffff021916908373ffffffffffffffffffffffffffffffffffffffff16021790555033600460006101000a81548173ffffffffffffffffffffffffffffffffffffffff021916908373ffffffffffffffffffffffffffffffffffffffff16021790555060408051908101604052808281526020016103e88152506006600082015181600001556020820151816001015590505042600581905550505050610f5f806102ab6000396000f300608060405260043610610107576000357c0100000000000000000000000000000000000000000000000000000000900463ffffffff168063347820eb146101095780633ccfd60b146101345780635ed7ca5b1461014b578063664a1ad6146101625780637a9262a2146101b9578063823e569e146102175780638d6cc56d1461026e5780639c8f9f231461029b5780639d1b464a146102c85780639ee679e8146102fa578063a293d1e814610327578063b9b8af0b14610372578063bc31c1c1146103a1578063cb3e64fd146103e9578063d05c78da14610400578063dbb245541461044b578063e6cb901314610478578063e8078d94146104c3578063f4a52002146104cd575b005b34801561011557600080fd5b5061011e610524565b6040518082815260200191505060405180910390f35b34801561014057600080fd5b5061014961052a565b005b34801561015757600080fd5b5061016061069a565b005b34801561016e57600080fd5b506101776106b7565b604051808273ffffffffffffffffffffffffffffffffffffffff1673ffffffffffffffffffffffffffffffffffffffff16815260200191505060405180910390f35b3480156101c557600080fd5b506101fa600480360381019080803573ffffffffffffffffffffffffffffffffffffffff1690602001909291905050506106dd565b604051808381526020018281526020019250505060405180910390f35b34801561022357600080fd5b5061022c610701565b604051808273ffffffffffffffffffffffffffffffffffffffff1673ffffffffffffffffffffffffffffffffffffffff16815260200191505060405180910390f35b34801561027a57600080fd5b5061029960048036038101908080359060200190929190505050610727565b005b3480156102a757600080fd5b506102c660048036038101908080359060200190929190505050610778565b005b3480156102d457600080fd5b506102dd61080a565b604051808381526020018281526020019250505060405180910390f35b34801561030657600080fd5b506103256004803603810190808035906020019092919050505061081c565b005b34801561033357600080fd5b5061035c6004803603810190808035906020019092919080359060200190929190505050610a26565b6040518082815260200191505060405180910390f35b34801561037e57600080fd5b50610387610a3f565b604051808215151515815260200191505060405180910390f35b3480156103ad57600080fd5b506103cc60048036038101908080359060200190929190505050610a52565b604051808381526020018281526020019250505060405180910390f35b3480156103f557600080fd5b506103fe610a76565b005b34801561040c57600080fd5b506104356004803603810190808035906020019092919080359060200190929190505050610a93565b6040518082815260200191505060405180910390f35b34801561045757600080fd5b5061047660048036038101908080359060200190929190505050610ac6565b005b34801561048457600080fd5b506104ad6004803603810190808035906020019092919080359060200190929190505050610b17565b6040518082815260200191505060405180910390f35b6104cb610b41565b005b3480156104d957600080fd5b506104e2610b52565b604051808273ffffffffffffffffffffffffffffffffffffffff1673ffffffffffffffffffffffffffffffffffffffff16815260200191505060405180910390f35b60055481565b600080600080600960003373ffffffffffffffffffffffffffffffffffffffff1673ffffffffffffffffffffffffffffffffffffffff16815260200190815260200160002060000154935060008411151561058457600080fd5b600960003373ffffffffffffffffffffffffffffffffffffffff1673ffffffffffffffffffffffffffffffffffffffff168152602001908152602001600020600101549250600860008481526020019081526020016000209150600082600001541115156105f157600080fd5b8160000154610604858460010154610a93565b81151561060d57fe5b0490506000600960003373ffffffffffffffffffffffffffffffffffffffff1673ffffffffffffffffffffffffffffffffffffffff16815260200190815260200160002060000181905550803073ffffffffffffffffffffffffffffffffffffffff163110151561068857610683338286610b78565b610694565b610693338286610d0a565b5b50505050565b6001600460146101000a81548160ff021916908315150217905550565b600260009054906101000a900473ffffffffffffffffffffffffffffffffffffffff1681565b60096020528060005260406000206000915090508060000154908060010154905082565b600360009054906101000a900473ffffffffffffffffffffffffffffffffffffffff1681565b60008111151561073657600080fd5b80600660000181905550600660086000600554815260200190815260200160002060008201548160000155600182015481600101559050504260058190555050565b3073ffffffffffffffffffffffffffffffffffffffff1631811115151561079e57600080fd5b600260009054906101000a900473ffffffffffffffffffffffffffffffffffffffff1673ffffffffffffffffffffffffffffffffffffffff166108fc829081150290604051600060405180830381858888f19350505050158015610806573d6000803e3d6000fd5b5050565b60068060000154908060010154905082565b60008111151561082b57600080fd5b8061083533610e32565b1015151561084257600080fd5b6000600960003373ffffffffffffffffffffffffffffffffffffffff1673ffffffffffffffffffffffffffffffffffffffff1681526020019081526020016000206000015414151561089357600080fd5b600160009054906101000a900473ffffffffffffffffffffffffffffffffffffffff1673ffffffffffffffffffffffffffffffffffffffff1663a9059cbb600460009054906101000a900473ffffffffffffffffffffffffffffffffffffffff16836040518363ffffffff167c0100000000000000000000000000000000000000000000000000000000028152600401808373ffffffffffffffffffffffffffffffffffffffff1673ffffffffffffffffffffffffffffffffffffffff16815260200182815260200192505050602060405180830381600087803b15801561097a57600080fd5b505af115801561098e573d6000803e3d6000fd5b505050506040513d60208110156109a457600080fd5b8101908080519060200190929190505050506040805190810160405280828152602001600554815250600960003373ffffffffffffffffffffffffffffffffffffffff1673ffffffffffffffffffffffffffffffffffffffff168152602001908152602001600020600082015181600001556020820151816001015590505050565b6000828211151515610a3457fe5b818303905092915050565b600460149054906101000a900460ff1681565b60086020528060005260406000206000915090508060000154908060010154905082565b6000600460146101000a81548160ff021916908315150217905550565b60008082840290506000841480610ab45750828482811515610ab157fe5b04145b1515610abc57fe5b8091505092915050565b600081111515610ad557600080fd5b80600660010181905550600660086000600554815260200190815260200160002060008201548160000155600182015481600101559050504260058190555050565b6000808284019050838110158015610b2f5750828110155b1515610b3757fe5b8091505092915050565b600034111515610b5057600080fd5b565b600460009054906101000a900473ffffffffffffffffffffffffffffffffffffffff1681565b813073ffffffffffffffffffffffffffffffffffffffff163110151515610b9b57fe5b600160009054906101000a900473ffffffffffffffffffffffffffffffffffffffff1673ffffffffffffffffffffffffffffffffffffffff1663a9059cbb600260009054906101000a900473ffffffffffffffffffffffffffffffffffffffff16836040518363ffffffff167c0100000000000000000000000000000000000000000000000000000000028152600401808373ffffffffffffffffffffffffffffffffffffffff1673ffffffffffffffffffffffffffffffffffffffff16815260200182815260200192505050602060405180830381600087803b158015610c8257600080fd5b505af1158015610c96573d6000803e3d6000fd5b505050506040513d6020811015610cac57600080fd5b8101908080519060200190929190505050508273ffffffffffffffffffffffffffffffffffffffff166108fc839081150290604051600060405180830381858888f19350505050158015610d04573d6000803e3d6000fd5b50505050565b813073ffffffffffffffffffffffffffffffffffffffff1631101515610d2c57fe5b600160009054906101000a900473ffffffffffffffffffffffffffffffffffffffff1673ffffffffffffffffffffffffffffffffffffffff1663a9059cbb84836040518363ffffffff167c0100000000000000000000000000000000000000000000000000000000028152600401808373ffffffffffffffffffffffffffffffffffffffff1673ffffffffffffffffffffffffffffffffffffffff16815260200182815260200192505050602060405180830381600087803b158015610df157600080fd5b505af1158015610e05573d6000803e3d6000fd5b505050506040513d6020811015610e1b57600080fd5b810190808051906020019092919050505050505050565b6000600160009054906101000a900473ffffffffffffffffffffffffffffffffffffffff1673ffffffffffffffffffffffffffffffffffffffff166370a08231836040518263ffffffff167c0100000000000000000000000000000000000000000000000000000000028152600401808273ffffffffffffffffffffffffffffffffffffffff1673ffffffffffffffffffffffffffffffffffffffff168152602001915050602060405180830381600087803b158015610ef157600080fd5b505af1158015610f05573d6000803e3d6000fd5b505050506040513d6020811015610f1b57600080fd5b810190808051906020019092919050505090509190505600a165627a7a72305820062b518d5c1e283cf0c2e38b5fa3123968b37a58c64e16c989d138c9fa2dd3f90029",
  "source": "pragma solidity ^0.4.22;\n\n\n/// @title A contract used to prevent uint overflow issues when performing mathematical operations\ncontract SafeMath {\n    function safeMul(uint a, uint b) pure returns (uint) {\n        uint c = a * b;\n        assert(a == 0 || c / a == b);\n        return c;\n    }\n    function safeSub(uint a, uint b) pure returns (uint) {\n        assert(b <= a);\n        return a - b;\n    }\n    function safeAdd(uint a, uint b) pure returns (uint) {\n        uint c = a + b;\n        assert(c>=a && c>=b);\n        return c;\n    }\n}\n\n\ncontract C20Interface {\n  function balanceOf(address _owner) public constant returns (uint);\n  function transfer(address _to, uint256 _value) returns (bool success);\n  //function verifyParticipant(address participant) external;\n}\n\n\n/// @title C20 liquidation contract\n/// @author Tom McCarthy\n/// @notice Liquidates C20 tokens held by participants in the Cryto20 fund\ncontract Liquidation is SafeMath {\n    // Address of C20 contract on ethereum\n    address C20InterfaceAddress = 0x26E75307Fc0C021472fEb8F727839531F112f317;\n    C20Interface c20Contract = C20Interface(C20InterfaceAddress);\n\n    // PUBLIC VARIABLES:\n    /// @dev Managing wallets from C20 contract\n    address public fundWallet;\n    address public controlWallet;\n\n    /// @dev Escrow wallet for C20 liquidation\n    address public liquidationWallet;\n\n    // TODO: implement wait time for price updates\n    bool public halted = false;\n    uint public previousUpdateTime;\n    Price public currentPrice;\n\n    // STRUCTS:\n    /// @dev Price of C20 (tokens per ether)\n    struct Price {\n        uint numerator;\n        uint denominator;\n    }\n\n    /// @dev Amount tokens to withdraw, previous update time when request made\n    struct Withdrawal {\n        uint tokens;\n        uint time;\n    }\n\n    // MAPPINGS:\n    /// @dev Previous update time mapped to most recently retrieved price\n    mapping (uint256 => Price) public prices;\n\n    /// @dev Address mapped to withdrawal\n    mapping (address => Withdrawal) public withdrawals;\n\n    //MODIFIERS:\n    // TODO: create modifiers\n\n    // EVENTS:\n    // TODO: create events for functions to communicate with front-end\n\n    // CONSTRUCTOR:\n    constructor(address fundWalletInput, address controlWalletInput, uint priceNumeratorInput) public {\n        require(fundWalletInput != address(0));\n        require(controlWalletInput != address(0));\n        require(priceNumeratorInput > 0);\n        fundWallet = fundWalletInput;\n        controlWallet = controlWalletInput;\n        liquidationWallet = msg.sender;\n        currentPrice = Price(priceNumeratorInput, 1000);\n        previousUpdateTime = now;\n    }\n\n    // FUNCTIONS:\n    /// @notice Fallback function allowing contract to accept ether\n    function () public payable {}\n\n    /// @notice Updates number of C20 tokens per set amount of ether\n    /// @dev Current update time is not mapped to current price in order to maintain forward pricing policy\n    function updatePrice(uint _newNumerator) external {\n        require(_newNumerator > 0);\n        // TODO: require(limited_change(_newNumerator));\n        // Update numerator of currentPrice\n        currentPrice.numerator = _newNumerator;\n        // Map previous update time to updated price\n        prices[previousUpdateTime] = currentPrice;\n        // Update previousUpdateTime\n        previousUpdateTime = now;\n    }\n\n    /// @notice Updates set amount of ether in measure of C20 tokens per set amount of ether\n    /// @dev Not updated frequently like numerator; used in circumstances where order of magnitude of price changes\n    function updatePriceDenominator(uint _newDenominator) external {\n        require(_newDenominator > 0);\n        // Update denominator of currentPrice\n        currentPrice.denominator = _newDenominator;\n        // Map previous update time to updated price\n        prices[previousUpdateTime] = currentPrice;\n        // Update previousUpdateTime\n        previousUpdateTime = now;\n    }\n\n    /// @notice Gets C20 token balance of participant from C20 contract\n    function balanceOf(address _participant) private view returns (uint balance) {\n        // TODO: Get balance from balanceOf function in C20 contract\n        return c20Contract.balanceOf(_participant);\n    }\n\n    /// @notice Allows user to request a certain amount of tokens to liquidate\n    function requestWithdrawal(uint _tokensToWithdraw) external {\n        require(_tokensToWithdraw > 0);\n        require(balanceOf(msg.sender) >= _tokensToWithdraw);\n        // No outstanding withdrawals can exist\n        require(withdrawals[msg.sender].tokens == 0);\n        // Transfer C20 tokens from msg.sender to liquidation escrow wallet\n        c20Contract.transfer(liquidationWallet, _tokensToWithdraw);\n        // Store requested withdrawal in withdrawal mapping\n        withdrawals[msg.sender] = Withdrawal({tokens: _tokensToWithdraw, time: previousUpdateTime});\n    }\n\n    /// @notice Called by user after requesting withdrawal to carry out withdrawal\n    function withdraw() external {\n        uint tokens = withdrawals[msg.sender].tokens;\n        // Withdrawal must have been requested\n        require(tokens > 0);\n        // previousUpdateTime when request was made\n        uint requestTime = withdrawals[msg.sender].time;\n        // Next price that was set after the request (maintaining forward pricing policy)\n        Price priceAfterRequest = prices[requestTime];\n        // Price must have been set after requestTime\n        require(priceAfterRequest.numerator > 0);\n        // Convert number of C20 tokens in liquidation request to ether\n        uint256 ethValue = safeMul(tokens, priceAfterRequest.denominator) / priceAfterRequest.numerator;\n        // Reset mapping storing requested withdrawals\n        withdrawals[msg.sender].tokens = 0;\n\n        // If liquidation contract has enough ether in balance to perform liquidation transaction\n        if (address(this).balance >= ethValue) { //this.balance\n            // Perform liquidation transaction\n            doWithdrawal(msg.sender, ethValue, tokens);\n        }\n        else {\n            // Refund tokens to participant\n            failWithdrawal(msg.sender, ethValue, tokens);\n        }\n    }\n\n    /// @notice Add C20 tokens to fund wallet, transfer correstponding ether to participant\n    function doWithdrawal(address _participant, uint _ethValue, uint _tokens) private {\n        assert(address(this).balance >= _ethValue); //this.balance\n        // Add transfer C20 tokens from msg.sender to fundWallet\n        c20Contract.transfer(fundWallet, _tokens);\n        // Transfer ether from contract to participant\n        _participant.transfer(_ethValue);\n        // TODO: Withdraw(_participant, _tokens, _ethValue);\n    }\n\n    /// @notice Refund tokens to participant, indicate failed transaction\n    function failWithdrawal(address _participant, uint _ethValue, uint _tokens) private {\n        assert(address(this).balance < _ethValue); //this.balance\n        // Refund tokens to participant\n        c20Contract.transfer(_participant, _tokens);\n        // TODO: Withdraw(participant, tokens, 0);\n    }\n\n    /// @notice Managing wallets can transfer ether to contract\n    function addLiquidity() external payable {\n        require(msg.value > 0);\n        // TODO: AddLiquidity(msg.value);\n    }\n\n    /// @notice Managing wallets can transfer ether from contract to fund wallet\n    function removeLiquidity(uint _amount) external {\n        require(_amount <= address(this).balance); //this.balance\n        fundWallet.transfer(_amount);\n        // TODO: RemoveLiquidity(_amount);\n    }\n\n    /// @notice Fund wallet can stop liquidation transactions from occurring\n    function halt() external {\n        halted = true;\n    }\n\n    /// @notice Fund wallet can allow liquidation transactions to occur again\n    function unhalt() external {\n        halted = false;\n    }\n\n    // TODO: Update C20 Contract Address\n}\n",
  "sourcePath": "/Users/Tommy/Documents/invictus/liquidation/contracts/Liquidation.sol",
  "compiler": {
    "name": "solc",
    "version": "0.4.24+commit.e67f0147.Emscripten.clang"
  },
  "schemaVersion": "2.0.1",
  "updatedAt": "2018-07-03T14:11:30.075Z"
}